{
  "contractName": "QuestContract",
  "abi": [
    {
      "inputs": [],
      "stateMutability": "nonpayable",
      "type": "constructor"
    },
    {
      "anonymous": false,
      "inputs": [
        {
          "indexed": false,
          "internalType": "uint256",
          "name": "questId",
          "type": "uint256"
        },
        {
          "indexed": false,
          "internalType": "address[]",
          "name": "winners",
          "type": "address[]"
        }
      ],
      "name": "PrizeDistributed",
      "type": "event"
    },
    {
      "anonymous": false,
      "inputs": [
        {
          "indexed": false,
          "internalType": "uint256",
          "name": "questId",
          "type": "uint256"
        },
        {
          "indexed": false,
          "internalType": "string",
          "name": "title",
          "type": "string"
        },
        {
          "indexed": false,
          "internalType": "string",
          "name": "description",
          "type": "string"
        },
        {
          "indexed": false,
          "internalType": "uint256",
          "name": "startDate",
          "type": "uint256"
        },
        {
          "indexed": false,
          "internalType": "uint256",
          "name": "endDate",
          "type": "uint256"
        },
        {
          "indexed": false,
          "internalType": "enum QuestContract.RewardDistributionType",
          "name": "rewardDistributionType",
          "type": "uint8"
        },
        {
          "indexed": false,
          "internalType": "uint256",
          "name": "totalRewards",
          "type": "uint256"
        },
        {
          "indexed": false,
          "internalType": "uint256[]",
          "name": "rewardAmounts",
          "type": "uint256[]"
        },
        {
          "indexed": false,
          "internalType": "uint256",
          "name": "totalParticipants",
          "type": "uint256"
        }
      ],
      "name": "QuestCreated",
      "type": "event"
    },
    {
      "anonymous": false,
      "inputs": [
        {
          "indexed": false,
          "internalType": "uint256",
          "name": "questId",
          "type": "uint256"
        },
        {
          "indexed": false,
          "internalType": "address",
          "name": "user",
          "type": "address"
        }
      ],
      "name": "TaskCompleted",
      "type": "event"
    },
    {
      "anonymous": false,
      "inputs": [
        {
          "indexed": false,
          "internalType": "uint256",
          "name": "questId",
          "type": "uint256"
        },
        {
          "indexed": false,
          "internalType": "address",
          "name": "user",
          "type": "address"
        }
      ],
      "name": "UserEnrolled",
      "type": "event"
    },
    {
      "inputs": [],
      "name": "owner",
      "outputs": [
        {
          "internalType": "address",
          "name": "",
          "type": "address"
        }
      ],
      "stateMutability": "view",
      "type": "function",
      "constant": true
    },
    {
      "inputs": [],
      "name": "questCount",
      "outputs": [
        {
          "internalType": "uint256",
          "name": "",
          "type": "uint256"
        }
      ],
      "stateMutability": "view",
      "type": "function",
      "constant": true
    },
    {
      "inputs": [
        {
          "internalType": "uint256",
          "name": "",
          "type": "uint256"
        }
      ],
      "name": "quests",
      "outputs": [
        {
          "internalType": "string",
          "name": "title",
          "type": "string"
        },
        {
          "internalType": "string",
          "name": "description",
          "type": "string"
        },
        {
          "internalType": "uint256",
          "name": "startDate",
          "type": "uint256"
        },
        {
          "internalType": "uint256",
          "name": "endDate",
          "type": "uint256"
        },
        {
          "internalType": "enum QuestContract.RewardDistributionType",
          "name": "rewardDistributionType",
          "type": "uint8"
        },
        {
          "internalType": "uint256",
          "name": "totalRewards",
          "type": "uint256"
        },
        {
          "internalType": "uint256",
          "name": "totalParticipants",
          "type": "uint256"
        }
      ],
      "stateMutability": "view",
      "type": "function",
      "constant": true
    },
    {
      "inputs": [
        {
          "internalType": "string",
          "name": "_title",
          "type": "string"
        },
        {
          "internalType": "string",
          "name": "_description",
          "type": "string"
        },
        {
          "internalType": "uint256",
          "name": "_startDate",
          "type": "uint256"
        },
        {
          "internalType": "uint256",
          "name": "_endDate",
          "type": "uint256"
        },
        {
          "internalType": "enum QuestContract.RewardDistributionType",
          "name": "_rewardDistributionType",
          "type": "uint8"
        },
        {
          "internalType": "uint256",
          "name": "_totalRewards",
          "type": "uint256"
        },
        {
          "internalType": "uint256[]",
          "name": "_rewardAmounts",
          "type": "uint256[]"
        },
        {
          "internalType": "uint256",
          "name": "_totalParticipants",
          "type": "uint256"
        }
      ],
      "name": "createQuest",
      "outputs": [],
      "stateMutability": "payable",
      "type": "function",
      "payable": true
    },
    {
      "inputs": [
        {
          "internalType": "uint256",
          "name": "_questId",
          "type": "uint256"
        }
      ],
      "name": "enrollInQuest",
      "outputs": [],
      "stateMutability": "payable",
      "type": "function",
      "payable": true
    },
    {
      "inputs": [
        {
          "internalType": "uint256",
          "name": "_questId",
          "type": "uint256"
        }
      ],
      "name": "completeTask",
      "outputs": [],
      "stateMutability": "nonpayable",
      "type": "function"
    }
  ],
  "bytecode": "0x608060405234801561001057600080fd5b50336000806101000a81548173ffffffffffffffffffffffffffffffffffffffff021916908373ffffffffffffffffffffffffffffffffffffffff1602179055506123a1806100606000396000f3fe6080604052600436106100555760003560e01c80630c663e281461005a5780633970ab43146100765780638da5cb5b146100a1578063e067a2b1146100cc578063e085f980146100e8578063e1e295581461012b575b600080fd5b610074600480360381019061006f9190611177565b610154565b005b34801561008257600080fd5b5061008b61039a565b60405161009891906111b3565b60405180910390f35b3480156100ad57600080fd5b506100b66103a0565b6040516100c3919061120f565b60405180910390f35b6100e660048036038101906100e1919061145d565b6103c4565b005b3480156100f457600080fd5b5061010f600480360381019061010a9190611177565b61078c565b604051610122979695949392919061165d565b60405180910390f35b34801561013757600080fd5b50610152600480360381019061014d9190611177565b6108eb565b005b60008111801561016657506002548111155b6101a5576040517f08c379a000000000000000000000000000000000000000000000000000000000815260040161019c90611726565b60405180910390fd5b6000600160008381526020019081526020016000209050600015158160090160003373ffffffffffffffffffffffffffffffffffffffff1673ffffffffffffffffffffffffffffffffffffffff16815260200190815260200160002060009054906101000a900460ff16151514610251576040517f08c379a000000000000000000000000000000000000000000000000000000000815260040161024890611792565b60405180910390fd5b806007015481600801805490501061029e576040517f08c379a0000000000000000000000000000000000000000000000000000000008152600401610295906117fe565b60405180910390fd5b80600801339080600181540180825580915050600190039060005260206000200160009091909190916101000a81548173ffffffffffffffffffffffffffffffffffffffff021916908373ffffffffffffffffffffffffffffffffffffffff16021790555060018160090160003373ffffffffffffffffffffffffffffffffffffffff1673ffffffffffffffffffffffffffffffffffffffff16815260200190815260200160002060006101000a81548160ff0219169083151502179055507ffacf1a2842acbad124cbca0a047fe37bc246c68f814e0350c7bd8a022fd1dddb823360405161038e92919061181e565b60405180910390a15050565b60025481565b60008054906101000a900473ffffffffffffffffffffffffffffffffffffffff1681565b60008054906101000a900473ffffffffffffffffffffffffffffffffffffffff1673ffffffffffffffffffffffffffffffffffffffff163373ffffffffffffffffffffffffffffffffffffffff1614610452576040517f08c379a0000000000000000000000000000000000000000000000000000000008152600401610449906118b9565b60405180910390fd5b60008311610495576040517f08c379a000000000000000000000000000000000000000000000000000000000815260040161048c9061194b565b60405180910390fd5b828251146104d8576040517f08c379a00000000000000000000000000000000000000000000000000000000081526004016104cf906119b7565b60405180910390fd5b6000811161051b576040517f08c379a000000000000000000000000000000000000000000000000000000000815260040161051290611a49565b60405180910390fd5b6002600081548092919061052e90611a98565b9190505550600060016000600254815260200190815260200160002090508881600001908161055d9190611cec565b508781600101908161056f9190611cec565b50868160020181905550858160030181905550848160040160006101000a81548160ff021916908360018111156105a9576105a86115e6565b5b0217905550838160050181905550828160060190805190602001906105cf929190611039565b50818160070181905550600067ffffffffffffffff8111156105f4576105f3611245565b5b6040519080825280602002602001820160405280156106225781602001602082028036833780820191505090505b5081600801908051906020019061063a929190611086565b5060005b848110156107375783818151811061065957610658611dbe565b5b60200260200101514710156106a3576040517f08c379a000000000000000000000000000000000000000000000000000000000815260040161069a90611e5f565b60405180910390fd5b60008054906101000a900473ffffffffffffffffffffffffffffffffffffffff1673ffffffffffffffffffffffffffffffffffffffff166108fc8583815181106106f0576106ef611dbe565b5b60200260200101519081150290604051600060405180830381858888f19350505050158015610723573d6000803e3d6000fd5b50808061072f90611a98565b91505061063e565b507f61a5ab5daf198eded1ae06bda7c96a8d63a0646ea092091affd3a0559014fe446002548a8a8a8a8a8a8a8a60405161077999989796959493929190611f3d565b60405180910390a1505050505050505050565b60016020528060005260406000206000915090508060000180546107af90611b0f565b80601f01602080910402602001604051908101604052809291908181526020018280546107db90611b0f565b80156108285780601f106107fd57610100808354040283529160200191610828565b820191906000526020600020905b81548152906001019060200180831161080b57829003601f168201915b50505050509080600101805461083d90611b0f565b80601f016020809104026020016040519081016040528092919081815260200182805461086990611b0f565b80156108b65780601f1061088b576101008083540402835291602001916108b6565b820191906000526020600020905b81548152906001019060200180831161089957829003601f168201915b5050505050908060020154908060030154908060040160009054906101000a900460ff16908060050154908060070154905087565b6000811180156108fd57506002548111155b61093c576040517f08c379a000000000000000000000000000000000000000000000000000000000815260040161093390611726565b60405180910390fd5b6000600160008381526020019081526020016000209050600115158160090160003373ffffffffffffffffffffffffffffffffffffffff1673ffffffffffffffffffffffffffffffffffffffff16815260200190815260200160002060009054906101000a900460ff161515146109e8576040517f08c379a00000000000000000000000000000000000000000000000000000000081526004016109df9061202b565b60405180910390fd5b6000151581600a0160003373ffffffffffffffffffffffffffffffffffffffff1673ffffffffffffffffffffffffffffffffffffffff16815260200190815260200160002060009054906101000a900460ff16151514610a7d576040517f08c379a0000000000000000000000000000000000000000000000000000000008152600401610a74906120bd565b60405180910390fd5b600181600a0160003373ffffffffffffffffffffffffffffffffffffffff1673ffffffffffffffffffffffffffffffffffffffff16815260200190815260200160002060006101000a81548160ff0219169083151502179055507fbb5889c77948badf90e8a5c73d55265e5f5d6e4837a79a78c5669691b897faed8233604051610b0892919061181e565b60405180910390a18060070154816008018054905003610b2c57610b2b82610b30565b5b5050565b60006001600083815260200190815260200160002090506000816007015467ffffffffffffffff811115610b6757610b66611245565b5b604051908082528060200260200182016040528015610b955781602001602082028036833780820191505090505b50905060006001811115610bac57610bab6115e6565b5b8260040160009054906101000a900460ff166001811115610bd057610bcf6115e6565b5b03610dd357600082600601600081548110610bee57610bed611dbe565b5b90600052602060002001548360050154610c0891906120dd565b905080471015610c4d576040517f08c379a0000000000000000000000000000000000000000000000000000000008152600401610c4490612191565b60405180910390fd5b60005b8360070154811015610cfd57836008018181548110610c7257610c71611dbe565b5b9060005260206000200160009054906101000a900473ffffffffffffffffffffffffffffffffffffffff16838281518110610cb057610caf611dbe565b5b602002602001019073ffffffffffffffffffffffffffffffffffffffff16908173ffffffffffffffffffffffffffffffffffffffff16815250508080610cf590611a98565b915050610c50565b5060005b8251811015610dcc57828181518110610d1d57610d1c611dbe565b5b602002602001015173ffffffffffffffffffffffffffffffffffffffff166108fc85600601600081548110610d5557610d54611dbe565b5b90600052602060002001549081150290604051600060405180830381858888f19350505050610db9576040517f08c379a0000000000000000000000000000000000000000000000000000000008152600401610db0906121fd565b60405180910390fd5b8080610dc490611a98565b915050610d01565b5050610ffb565b600180811115610de657610de56115e6565b5b8260040160009054906101000a900460ff166001811115610e0a57610e096115e6565b5b03610ffa578160060180549050826005015414610e5c576040517f08c379a0000000000000000000000000000000000000000000000000000000008152600401610e53906119b7565b60405180910390fd5b60005b8260070154811015610f1b5782600801836005015482610e7f919061224c565b81548110610e9057610e8f611dbe565b5b9060005260206000200160009054906101000a900473ffffffffffffffffffffffffffffffffffffffff16828281518110610ece57610ecd611dbe565b5b602002602001019073ffffffffffffffffffffffffffffffffffffffff16908173ffffffffffffffffffffffffffffffffffffffff16815250508080610f1390611a98565b915050610e5f565b5060005b8151811015610ff857818181518110610f3b57610f3a611dbe565b5b602002602001015173ffffffffffffffffffffffffffffffffffffffff166108fc84600601856005015484610f70919061224c565b81548110610f8157610f80611dbe565b5b90600052602060002001549081150290604051600060405180830381858888f19350505050610fe5576040517f08c379a0000000000000000000000000000000000000000000000000000000008152600401610fdc906121fd565b60405180910390fd5b8080610ff090611a98565b915050610f1f565b505b5b7ff35e58dc929a3c6c58e46663cf69d37ea6c715d7f1db5f56222c0ce90bc5381a838260405161102c92919061233b565b60405180910390a1505050565b828054828255906000526020600020908101928215611075579160200282015b82811115611074578251825591602001919060010190611059565b5b5090506110829190611110565b5090565b8280548282559060005260206000209081019282156110ff579160200282015b828111156110fe5782518260006101000a81548173ffffffffffffffffffffffffffffffffffffffff021916908373ffffffffffffffffffffffffffffffffffffffff160217905550916020019190600101906110a6565b5b50905061110c9190611110565b5090565b5b80821115611129576000816000905550600101611111565b5090565b6000604051905090565b600080fd5b600080fd5b6000819050919050565b61115481611141565b811461115f57600080fd5b50565b6000813590506111718161114b565b92915050565b60006020828403121561118d5761118c611137565b5b600061119b84828501611162565b91505092915050565b6111ad81611141565b82525050565b60006020820190506111c860008301846111a4565b92915050565b600073ffffffffffffffffffffffffffffffffffffffff82169050919050565b60006111f9826111ce565b9050919050565b611209816111ee565b82525050565b60006020820190506112246000830184611200565b92915050565b600080fd5b600080fd5b6000601f19601f8301169050919050565b7f4e487b7100000000000000000000000000000000000000000000000000000000600052604160045260246000fd5b61127d82611234565b810181811067ffffffffffffffff8211171561129c5761129b611245565b5b80604052505050565b60006112af61112d565b90506112bb8282611274565b919050565b600067ffffffffffffffff8211156112db576112da611245565b5b6112e482611234565b9050602081019050919050565b82818337600083830152505050565b600061131361130e846112c0565b6112a5565b90508281526020810184848401111561132f5761132e61122f565b5b61133a8482856112f1565b509392505050565b600082601f8301126113575761135661122a565b5b8135611367848260208601611300565b91505092915050565b6002811061137d57600080fd5b50565b60008135905061138f81611370565b92915050565b600067ffffffffffffffff8211156113b0576113af611245565b5b602082029050602081019050919050565b600080fd5b60006113d96113d484611395565b6112a5565b905080838252602082019050602084028301858111156113fc576113fb6113c1565b5b835b8181101561142557806114118882611162565b8452602084019350506020810190506113fe565b5050509392505050565b600082601f8301126114445761144361122a565b5b81356114548482602086016113c6565b91505092915050565b600080600080600080600080610100898b03121561147e5761147d611137565b5b600089013567ffffffffffffffff81111561149c5761149b61113c565b5b6114a88b828c01611342565b985050602089013567ffffffffffffffff8111156114c9576114c861113c565b5b6114d58b828c01611342565b97505060406114e68b828c01611162565b96505060606114f78b828c01611162565b95505060806115088b828c01611380565b94505060a06115198b828c01611162565b93505060c089013567ffffffffffffffff81111561153a5761153961113c565b5b6115468b828c0161142f565b92505060e06115578b828c01611162565b9150509295985092959890939650565b600081519050919050565b600082825260208201905092915050565b60005b838110156115a1578082015181840152602081019050611586565b60008484015250505050565b60006115b882611567565b6115c28185611572565b93506115d2818560208601611583565b6115db81611234565b840191505092915050565b7f4e487b7100000000000000000000000000000000000000000000000000000000600052602160045260246000fd5b60028110611626576116256115e6565b5b50565b600081905061163782611615565b919050565b600061164782611629565b9050919050565b6116578161163c565b82525050565b600060e0820190508181036000830152611677818a6115ad565b9050818103602083015261168b81896115ad565b905061169a60408301886111a4565b6116a760608301876111a4565b6116b4608083018661164e565b6116c160a08301856111a4565b6116ce60c08301846111a4565b98975050505050505050565b7f496e76616c696420717565737420494400000000000000000000000000000000600082015250565b6000611710601083611572565b915061171b826116da565b602082019050919050565b6000602082019050818103600083015261173f81611703565b9050919050565b7f5573657220616c726561647920656e726f6c6c65640000000000000000000000600082015250565b600061177c601583611572565b915061178782611746565b602082019050919050565b600060208201905081810360008301526117ab8161176f565b9050919050565b7f51756573742069732066756c6c00000000000000000000000000000000000000600082015250565b60006117e8600d83611572565b91506117f3826117b2565b602082019050919050565b60006020820190508181036000830152611817816117db565b9050919050565b600060408201905061183360008301856111a4565b6118406020830184611200565b9392505050565b7f4f6e6c7920746865206f776e65722063616e2063616c6c20746869732066756e60008201527f6374696f6e000000000000000000000000000000000000000000000000000000602082015250565b60006118a3602583611572565b91506118ae82611847565b604082019050919050565b600060208201905081810360008301526118d281611896565b9050919050565b7f546f74616c20726577617264732073686f756c6420626520677265617465722060008201527f7468616e207a65726f0000000000000000000000000000000000000000000000602082015250565b6000611935602983611572565b9150611940826118d9565b604082019050919050565b6000602082019050818103600083015261196481611928565b9050919050565b7f496e76616c69642072657761726420616d6f756e747300000000000000000000600082015250565b60006119a1601683611572565b91506119ac8261196b565b602082019050919050565b600060208201905081810360008301526119d081611994565b9050919050565b7f546f74616c207061727469636970616e74732073686f756c642062652067726560008201527f61746572207468616e207a65726f000000000000000000000000000000000000602082015250565b6000611a33602e83611572565b9150611a3e826119d7565b604082019050919050565b60006020820190508181036000830152611a6281611a26565b9050919050565b7f4e487b7100000000000000000000000000000000000000000000000000000000600052601160045260246000fd5b6000611aa382611141565b91507fffffffffffffffffffffffffffffffffffffffffffffffffffffffffffffffff8203611ad557611ad4611a69565b5b600182019050919050565b7f4e487b7100000000000000000000000000000000000000000000000000000000600052602260045260246000fd5b60006002820490506001821680611b2757607f821691505b602082108103611b3a57611b39611ae0565b5b50919050565b60008190508160005260206000209050919050565b60006020601f8301049050919050565b600082821b905092915050565b600060088302611ba27fffffffffffffffffffffffffffffffffffffffffffffffffffffffffffffffff82611b65565b611bac8683611b65565b95508019841693508086168417925050509392505050565b6000819050919050565b6000611be9611be4611bdf84611141565b611bc4565b611141565b9050919050565b6000819050919050565b611c0383611bce565b611c17611c0f82611bf0565b848454611b72565b825550505050565b600090565b611c2c611c1f565b611c37818484611bfa565b505050565b5b81811015611c5b57611c50600082611c24565b600181019050611c3d565b5050565b601f821115611ca057611c7181611b40565b611c7a84611b55565b81016020851015611c89578190505b611c9d611c9585611b55565b830182611c3c565b50505b505050565b600082821c905092915050565b6000611cc360001984600802611ca5565b1980831691505092915050565b6000611cdc8383611cb2565b9150826002028217905092915050565b611cf582611567565b67ffffffffffffffff811115611d0e57611d0d611245565b5b611d188254611b0f565b611d23828285611c5f565b600060209050601f831160018114611d565760008415611d44578287015190505b611d4e8582611cd0565b865550611db6565b601f198416611d6486611b40565b60005b82811015611d8c57848901518255600182019150602085019450602081019050611d67565b86831015611da95784890151611da5601f891682611cb2565b8355505b6001600288020188555050505b505050505050565b7f4e487b7100000000000000000000000000000000000000000000000000000000600052603260045260246000fd5b7f496e73756666696369656e742062616c616e636520696e2074686520636f6e7460008201527f7261637400000000000000000000000000000000000000000000000000000000602082015250565b6000611e49602483611572565b9150611e5482611ded565b604082019050919050565b60006020820190508181036000830152611e7881611e3c565b9050919050565b600081519050919050565b600082825260208201905092915050565b6000819050602082019050919050565b611eb481611141565b82525050565b6000611ec68383611eab565b60208301905092915050565b6000602082019050919050565b6000611eea82611e7f565b611ef48185611e8a565b9350611eff83611e9b565b8060005b83811015611f30578151611f178882611eba565b9750611f2283611ed2565b925050600181019050611f03565b5085935050505092915050565b600061012082019050611f53600083018c6111a4565b8181036020830152611f65818b6115ad565b90508181036040830152611f79818a6115ad565b9050611f8860608301896111a4565b611f9560808301886111a4565b611fa260a083018761164e565b611faf60c08301866111a4565b81810360e0830152611fc18185611edf565b9050611fd16101008301846111a4565b9a9950505050505050505050565b7f55736572206e6f7420656e726f6c6c656420696e207468652071756573740000600082015250565b6000612015601e83611572565b915061202082611fdf565b602082019050919050565b6000602082019050818103600083015261204481612008565b9050919050565b7f557365722068617320616c726561647920636f6d706c6574656420746865207460008201527f61736b0000000000000000000000000000000000000000000000000000000000602082015250565b60006120a7602383611572565b91506120b28261204b565b604082019050919050565b600060208201905081810360008301526120d68161209a565b9050919050565b60006120e882611141565b91506120f383611141565b925082820261210181611141565b9150828204841483151761211857612117611a69565b5b5092915050565b7f496e73756666696369656e742066756e647320666f72207072697a652064697360008201527f747269627574696f6e0000000000000000000000000000000000000000000000602082015250565b600061217b602983611572565b91506121868261211f565b604082019050919050565b600060208201905081810360008301526121aa8161216e565b9050919050565b7f5072697a6520646973747269627574696f6e206661696c656400000000000000600082015250565b60006121e7601983611572565b91506121f2826121b1565b602082019050919050565b60006020820190508181036000830152612216816121da565b9050919050565b7f4e487b7100000000000000000000000000000000000000000000000000000000600052601260045260246000fd5b600061225782611141565b915061226283611141565b9250826122725761227161221d565b5b828206905092915050565b600081519050919050565b600082825260208201905092915050565b6000819050602082019050919050565b6122b2816111ee565b82525050565b60006122c483836122a9565b60208301905092915050565b6000602082019050919050565b60006122e88261227d565b6122f28185612288565b93506122fd83612299565b8060005b8381101561232e57815161231588826122b8565b9750612320836122d0565b925050600181019050612301565b5085935050505092915050565b600060408201905061235060008301856111a4565b818103602083015261236281846122dd565b9050939250505056fea2646970667358221220782174be9ec9d0dabe8d00815b8a84018e9c34d397b77ef80057dc8e90e76c1864736f6c63430008120033",
  "immutableReferences": {},
  "source": "// SPDX-License-Identifier: MIT\r\npragma solidity ^0.8.0;\r\n\r\ncontract QuestContract {\r\n    address public owner;\r\n\r\n    enum RewardDistributionType { SameAmount, SeparateAmount }\r\n\r\n    struct Quest {\r\n        string title;\r\n        string description;\r\n        uint256 startDate;\r\n        uint256 endDate;\r\n        RewardDistributionType rewardDistributionType;\r\n        uint256 totalRewards;\r\n        uint256[] rewardAmounts;\r\n        uint256 totalParticipants;\r\n        address[] participants;\r\n        mapping(address => bool) enrolled;\r\n        mapping(address => bool) tasksCompleted;\r\n    }\r\n\r\n    mapping(uint256 => Quest) public quests;\r\n    uint256 public questCount;\r\n\r\n    event QuestCreated(\r\n        uint256 questId,\r\n        string title,\r\n        string description,\r\n        uint256 startDate,\r\n        uint256 endDate,\r\n        RewardDistributionType rewardDistributionType,\r\n        uint256 totalRewards,\r\n        uint256[] rewardAmounts,\r\n        uint256 totalParticipants\r\n    );\r\n    event UserEnrolled(uint256 questId, address user);\r\n    event TaskCompleted(uint256 questId, address user);\r\n    event PrizeDistributed(uint256 questId, address[] winners);\r\n\r\n    modifier onlyOwner() {\r\n        require(msg.sender == owner, \"Only the owner can call this function\");\r\n        _;\r\n    }\r\n\r\n    constructor() {\r\n        owner = msg.sender;\r\n    }\r\n\r\n    function createQuest(\r\n        string memory _title,\r\n        string memory _description,\r\n        uint256 _startDate,\r\n        uint256 _endDate,\r\n        RewardDistributionType _rewardDistributionType,\r\n        uint256 _totalRewards,\r\n        uint256[] memory _rewardAmounts,\r\n        uint256 _totalParticipants\r\n    ) external onlyOwner payable {\r\n        require(_totalRewards > 0, \"Total rewards should be greater than zero\");\r\n        require(_rewardAmounts.length == _totalRewards, \"Invalid reward amounts\");\r\n        require(_totalParticipants > 0, \"Total participants should be greater than zero\");\r\n\r\n        questCount++;\r\n\r\n        Quest storage newQuest = quests[questCount];\r\n        newQuest.title = _title;\r\n        newQuest.description = _description;\r\n        newQuest.startDate = _startDate;\r\n        newQuest.endDate = _endDate;\r\n        newQuest.rewardDistributionType = _rewardDistributionType;\r\n        newQuest.totalRewards = _totalRewards;\r\n        newQuest.rewardAmounts = _rewardAmounts;\r\n        newQuest.totalParticipants = _totalParticipants;\r\n        newQuest.participants = new address[](0);\r\n\r\n        // Transfer reward amount to the contract\r\n        for (uint256 i = 0; i < _totalRewards; i++) {\r\n            require(\r\n                address(this).balance >= _rewardAmounts[i],\r\n                \"Insufficient balance in the contract\"\r\n            );\r\n            payable(owner).transfer(_rewardAmounts[i]);\r\n        }\r\n\r\n        emit QuestCreated(\r\n            questCount,\r\n            _title,\r\n            _description,\r\n            _startDate,\r\n            _endDate,\r\n            _rewardDistributionType,\r\n            _totalRewards,\r\n            _rewardAmounts,\r\n            _totalParticipants\r\n        );\r\n    }\r\n\r\n    function enrollInQuest(uint256 _questId) external payable {\r\n        require(_questId > 0 && _questId <= questCount, \"Invalid quest ID\");\r\n        Quest storage quest = quests[_questId];\r\n        require(quest.enrolled[msg.sender] == false, \"User already enrolled\");\r\n        // require(msg.value > 0, \"Enrollment fee is required\");\r\n\r\n        require(quest.participants.length < quest.totalParticipants, \"Quest is full\");\r\n\r\n        quest.participants.push(msg.sender);\r\n        quest.enrolled[msg.sender] = true;\r\n\r\n        emit UserEnrolled(_questId, msg.sender);\r\n    }\r\n\r\n    function completeTask(uint256 _questId) external {\r\n        require(_questId > 0 && _questId <= questCount, \"Invalid quest ID\");\r\n        Quest storage quest = quests[_questId];\r\n        require(quest.enrolled[msg.sender] == true, \"User not enrolled in the quest\");\r\n        require(quest.tasksCompleted[msg.sender] == false, \"User has already completed the task\");\r\n\r\n        quest.tasksCompleted[msg.sender] = true;\r\n\r\n        emit TaskCompleted(_questId, msg.sender);\r\n\r\n        if (quest.participants.length == quest.totalParticipants) {\r\n            distributePrizes(_questId);\r\n        }\r\n    }\r\n\r\n    function distributePrizes(uint256 _questId) internal {\r\n        Quest storage quest = quests[_questId];\r\n        address[] memory winners = new address[](quest.totalParticipants);\r\n\r\n        if (quest.rewardDistributionType == RewardDistributionType.SameAmount) {\r\n            // Same amount for all winners\r\n            uint256 totalPrize = quest.totalRewards * quest.rewardAmounts[0];\r\n            require(address(this).balance >= totalPrize, \"Insufficient funds for prize distribution\");\r\n\r\n            for (uint256 i = 0; i < quest.totalParticipants; i++) {\r\n                winners[i] = quest.participants[i];\r\n            }\r\n\r\n            // Distribute prizes\r\n            for (uint256 i = 0; i < winners.length; i++) {\r\n                require(payable(winners[i]).send(quest.rewardAmounts[0]), \"Prize distribution failed\");\r\n            }\r\n        } else if (quest.rewardDistributionType == RewardDistributionType.SeparateAmount) {\r\n            // Separate amount for each winner\r\n            require(quest.totalRewards == quest.rewardAmounts.length, \"Invalid reward amounts\");\r\n\r\n            for (uint256 i = 0; i < quest.totalParticipants; i++) {\r\n                winners[i] = quest.participants[i % quest.totalRewards];\r\n            }\r\n\r\n            // Distribute prizes\r\n            for (uint256 i = 0; i < winners.length; i++) {\r\n                require(payable(winners[i]).send(quest.rewardAmounts[i % quest.totalRewards]), \"Prize distribution failed\");\r\n            }\r\n        }\r\n\r\n        emit PrizeDistributed(_questId, winners);\r\n    }\r\n}\r\n",
  "sourcePath": "C:\\Users\\yashg\\Desktop\\Work Drive\\Skale\\TestStorage\\contracts\\QuestContract.sol",
  "compiler": {
    "name": "solc",
    "version": "0.8.18+commit.87f61d96.Emscripten.clang"
  },
  "schemaVersion": "3.4.16",
  "updatedAt": "2024-02-27T17:27:33.554Z",
  "networkType": "ethereum",
  "devdoc": {
    "kind": "dev",
    "methods": {},
    "version": 1
  },
  "userdoc": {
    "kind": "user",
    "methods": {},
    "version": 1
  }
}